:020000040800F2
:10000000E0070020910100086F27000895200008F4
:100010006D270008070700088F290008000000006E
:100020000000000000000000000000003928000867
:100030003F07000800000000712700083B28000867
:10004000AB010008AB010008AB010008AB010008E0
:10005000AB010008AB010008AB010008570700081E
:10006000AB0100085D0700086307000809070008E6
:10007000AB010008AB010008AB010008AB010008B0
:10008000AB010008AB010008AB010008AB010008A0
:10009000AB010008AB010008AB01000869070008CC
:1000A000AB010008AB010008AB010008AB01000880
:1000B000AB010008AB010008AB010008AB01000870
:1000C000AB010008AB010008AB010008AB01000860
:1000D000AB010008AB010008AB010008AB01000850
:1000E000AB010008AB010008AB01000800F002F80A
:1000F00000F03FF80AA090E8000C82448344AAF183
:100100000107DA4501D100F034F8AFF2090EBAE880
:100110000F0013F0010F18BFFB1A43F0010318473B
:100120002430000044300000103A24BF78C878C161
:10013000FAD8520724BF30C830C144BF04680C60ED
:10014000704700000023002400250026103A28BF35
:1001500078C1FBD8520728BF30C148BF0B60704739
:10016000642900F07180002070471FB51FBD10B5D5
:1001700010BD00F0E2F91146FFF7F7FF02F0A2FC14
:1001800000F000FA03B4FFF7F2FF03BC00F008FA36
:100190000948804709480047FEE7FEE7FEE7FEE71B
:1001A000FEE7FEE7FEE7FEE7FEE7FEE70448054957
:1001B000054A064B70470000B7280008ED0000080C
:1001C000E0010020E0070020E0030020E003002021
:1001D0000FB41CB5074B06AA7B44694600900598EE
:1001E00000F093F90020694600F0A2F91CBC5DF80C
:1001F00014FB00005503000070B5044685690068D3
:10020000C10601D5302600E02026C00707D070BD0A
:10021000D4E9012130469047206A401C20626D1EBF
:10022000F6D570BD70B5044685690078C00707D162
:1002300070BDD4E9012120209047206A401C206233
:100240006D1EF6D570BD00002DE9F0410646002474
:1002500010687529314616A510D0AFF3008000282C
:1002600002DA404213A507E031688A0701D512A5DA
:1002700002E0490704D511A5012401E0AFF3008095
:1002800000210A2206F1240709E0B0FBF2FCB0FBD2
:10029000F2F302FB1C00303078541846491C002849
:1002A000F3D123462A463046BDE8F04100F0CEB8EF
:1002B000000000002D0000002B00000020000000C6
:1002C0002DE9F05F894604464FF0000ADFF824B1BB
:1002D000FB44C0F820A02046E168884700287DD074
:1002E000252806D0D4E901219047206A401C2062CD
:1002F000F1E700255F462046E1688847202806464A
:1003000007DB312E05D2B81910F8200C08B10543CF
:10031000F1E7A80701D525F00405C4F81CA00027C3
:10032000C4F818A02A2E09D0304602F041FB38B399
:1003300004EB8708303EC8F8186019E059F8041B30
:10034000204604EB87029161E1688847012F064649
:1003500018D1E069002820DA25F020051DE0D8F842
:10036000180000EB800006EB40003038C8F8180099
:100370002046E1688847064602F01AFB0028EED1C5
:10038000012F0AD02E2E08D12046E16888477F1C15
:100390000646022F45F02005C4DBA069002803DAD9
:1003A000404245F00105A061E80701D025F01005A5
:1003B000A6B1A6F14100192802D8203645F40065FF
:1003C0004A463146204625604D46FFF7C9FE60B1DA
:1003D000012807D0ED1D25F0070000E007E000F13F
:1003E000080978E705F1040975E730467AE7206ADD
:1003F000BDE8F09F5E2E00004FF0000200B51346EE
:1004000094469646203922BFA0E80C50A0E80C5034
:10041000B1F12001BFF4F7AF090728BFA0E80C50E5
:1004200048BF0CC05DF804EB890028BF40F8042BDE
:1004300008BF704748BF20F8022B11F0804F18BF4B
:1004400000F8012B70477047704770472DE9F0475F
:100450000D4699469246044600F124080168880634
:1004600004D5E06921F01001216000E00120A842DC
:1004700001DD471B00E00027A1697A1902EB0900A2
:10048000081AA0612078C00602D42046FFF7B4FE07
:10049000002608E0D4E901211AF806009047206AF6
:1004A000401C761C20624E45F4DB2078C0060AD53D
:1004B0002046FFF7A1FE06E0D4E901213020904755
:1004C000206A401C2062381EA7F10107F4DC07E017
:1004D000D4E9012118F805009047206A401C2062E9
:1004E000281EA5F10105F3DC2046FFF79BFE2078CE
:1004F000000602D50220BDE8F0870120FBE70000DE
:1005000001694A1C02610878704700B58FB0CDE9D7
:1005100001310021059105497944CDE903101146C7
:100520006846FFF7CDFE0FB000BD0000E5FFFFFFFE
:100530000A6802F8010B0A607047754600F02CF853
:10054000AE4605006946534620F00700854618B0C0
:1005500020B5FFF72BFEBDE820404FF000064FF01E
:1005600000074FF000084FF0000B21F00701AC46E8
:10057000ACE8C009ACE8C009ACE8C009ACE8C00907
:100580008D46704710B50446AFF300802046BDE8A5
:100590001040FFF7F7BD00000048704780010020C1
:1005A00001491820ABBEFEE726000200704700009C
:1005B00070B5044600688168C943C90717D18168CE
:1005C00021F00101816000F047FD05460AE000BF0F
:1005D00000F042FD401B022804D920688068C04317
:1005E000C00706D020688068C043C007F0D0002054
:1005F00070BDA06A40F01000A062E06A40F0010007
:10060000E062012070BD10B50146406A826A12F0B6
:10061000500F05D0006A026BBDE810400846104735
:10062000816A41F40071816201688968C1F34241C5
:1006300007290CD1017B51B9816A21F48071816253
:10064000816AC90403D4816A41F00101816200F02A
:100650000FF910BD10B5406A816A41F04001816216
:10066000C16A41F00401C16200F004F910BD10B587
:10067000406A00F0FEF810BDF8B50026044600966A
:1006800000688168C943C9072DD0816841F0010124
:100690008160164816490068B0FBF1F000E0401E8A
:1006A00000900028FBD100F0D7FC054616E000BF03
:1006B00000F0D2FC401B022810D920688068C0439B
:1006C000C0070BD0A06A40F01000A062E06A40F0C2
:1006D0000100E06284F824600120F8BD2068806891
:1006E000C043C007E4D10020F8BD00002400002072
:1006F00040420F0000F00F01000900EB800001EB09
:100700004000C0B27047FEE7014800F011BA000097
:100710003C01002030B590F840500124AC40C56B3E
:100720006C60046863604368102B036803D09960B1
:100730000068C26030BD9A600068C16030BD70471B
:100740000A21B0FBF1F201FB1202B0FBF1F042EA28
:100750000010C0B27047022000F078BB082000F003
:1007600075BB102000F072BB202000F06FBB72B68A
:10077000FEE70000F8B50024009490F824202546F8
:10078000012A12D0012280F824204A681F23072A58
:100790000DD20668776B521E02EB820293409F4394
:1007A0000B6893401F43776319E00220F8BD066889
:1007B0000D2A0AD2376BD21F02EB820293409F436D
:1007C0000B6893401F43376309E0F76A0D3A02EB69
:1007D000820293409F430B6893401F43F7620A686D
:1007E000072306680A2A0AD3F7680A3A02EB42028C
:1007F00093409F438B6893401F43F76008E037693D
:1008000002EB420293409F438B6893401F43376142
:100810000A68102A01D0112A20D1124B02689A428C
:1008200017D193681B0219D4936843F400039360B3
:100830000968102912D10C490C4A0968B1FBF2F180
:1008400001EB8101490000E0491E00910029FBD124
:1008500004E0816A41F020018162012480F8245083
:100860002046F8BD002401402400002040420F0033
:1008700070477047704700002DE9F0414FF00007C6
:1008800004003D467ED0A06A002628B9E66284F8BE
:100890002460204600F07EF82046FFF789FEA16A1A
:1008A00001F01001014304D0A06A40F01000A062E2
:1008B00068E0A16A21F4885141F00201A1626268F6
:1008C000E169237B0A4347EA43010A43A1684FF4E5
:1008D0008077B94208D0012906D0002194F814C0CD
:1008E000BCF1010F02D00AE03946F7E7F3B1A36A81
:1008F00043F02003A362E36A43F00103E362236849
:10090000D3F804C02CF4694C4CEA010CC3F804C0C1
:1009100023689968DFF870C001EA0C0111439960FF
:10092000A168B9420BD0012909D00CE0DFF85CC006
:10093000A3690CEB43330B4343F40061DFE7218AE7
:100940000D05A5F580152168CB6A23F470032B43B0
:10095000CB62216889680E4B1940914208D1E6624A
:10096000A16A21F0020141F00101A162BDE8F0811C
:10097000A06A20F0020040F01000A062E06A40F09F
:100980000100E0620120F1E7FDF7E1FF00E0FFFF79
:10099000FE0E1FFF70B586B0002605460096019634
:1009A0000296039600681A4988422FD1194988692E
:1009B00040F400708861886900F4007004908869D0
:1009C00040F0040088618869694600F004000490E2
:1009D00001200090032001900F4800F043FA104CD2
:1009E0000E48C4E900068020C4E90260400020618E
:1009F000800060612020A061C001E061204600F01D
:100A000041F908B1FFF7B3FE2C62656206B070BD14
:100A1000002401400010024000080140080002408C
:100A20003C0100202DE9F047894604463B49006817
:100A30003B4F0E1D9046884201D0B84207D1306826
:100A400010F4702F03D001252846BDE8F08794F8F4
:100A5000240001280CD0012084F824002046FFF750
:100A60000BFE05004FF0000004D084F82400EBE7F3
:100A70000220EAE7A16A40F60162914341F48071E5
:100A8000A1622168B94218D1326812F4702F14D0D3
:100A9000A16A41F48011A1623168490505D5A16AB6
:100AA00021F4005141F48051A162A16AC9040AD520
:100AB000E16A21F00601E16206E0A26A22F48012F6
:100AC000A2624968E9E7E06284F82400216A1548D7
:100AD0008862216A1448C862216A14480863216840
:100AE0006FF0020008602068816841F480718160C5
:100AF000216843464A464C31206A00F0F1F82068EC
:100B00008168C1F342410729816803D041F4801113
:100B1000816099E741F4A001FAE700000024014058
:100B200000280140070600086F0600085506000867
:100B30002DE9F05FC16B0C6801680B68D0F840C00C
:100B4000042202FA0CF2494DDFF824A1494E4A4F23
:100B5000DFF828B1DFF828E122422CD05A072AD545
:100B60000A68920603D40A6822F004020A60016847
:100B7000A94201D1042219E0514501D1402215E0DA
:100B8000B14202D14FF4806210E0B94202D14FF479
:100B900080420BE0594502D14FF4802206E07145B6
:100BA00002D14FF4800201E04FF080622F490839F2
:100BB0004A60C16A3BE04FF0020808FA0CF818EAF4
:100BC000040F4FF000094FF0010235D05FEA83783F
:100BD00032D50B689B0605D40B6823F00A030B6023
:100BE00080F821200168A94201D1022219E0514573
:100BF00001D1202215E0B14202D14FF4007210E081
:100C0000B94202D14FF400520BE0594502D14FF4E2
:100C1000003206E0714502D14FF4001201E04FF0BE
:100C20000072124908394A6080F82090816A0029D0
:100C30001AD0BDE8F05F0847082505FA0CF52542F3
:100C400012D01B0710D50B6823F00E030B6090F831
:100C50004010C36B02FA01F15960826380F82120D1
:100C600080F82090016BE2E7BDE8F09F08000240A9
:100C70001C00024030000240440002405800024084
:100C80006C00024030B528B308C813491422194437
:100C9000B1FBF2F18900C163104981630221417700
:100CA0001A6843F6F0718A43D0E900142143D0E971
:100CB00002452C432143046921434469214384694B
:100CC00021431143196000214163012242770177DA
:100CD000084630BD012030BDF8FFFDBF00000240D6
:100CE00070B5044690F82000002501280CD00120A2
:100CF00084F8200094F821600020012E06D084F8AA
:100D000020000225284670BD022070BD022684F80E
:100D10002160A0632068066826F001060660204670
:100D2000FFF7F8FCE06A00282068016802D041F073
:100D30000E0106E021F0040101602068016841F025
:100D40000A0101602068016841F001010160D9E7F2
:100D500070B5044600F080F90546601C02D00448D6
:100D60000078044400F078F9401BA042FAD370BD2B
:100D70001800002070B5102540F2E6326B01911C7E
:100D80002E4C102817D0202620281DD002282FD026
:100D9000082851D1521E002AFCDC2948C168491C90
:100DA000C1604FF4FA614160082020600920BDE86D
:100DB000704000F0F7BC521E002AFCDC184602F01E
:100DC000B9F825600A2007E0521E002AFCDC18460C
:100DD00001F0E2FF2660172000F0E4FC01F03DF88E
:100DE0000121002000F03CFDBDE8704001F01AB880
:100DF0006220401E0028FCDC25600A2000F0D2FCA6
:100E00002660172000F0CEFC02F062F90D4D0E4E68
:100E10001021284600F016F950B12021284600F094
:100E200011F928B10821304600F00CF90028EFD163
:100E3000022020600720BAE770BD000014040140C2
:100E40000000002000080140000C0140044910B5DA
:100E50000A68024202D00860FFF78CFF10BD000054
:100E6000140401402DE9F84FDFF8B8910024A9F1EE
:100E7000040B23460F2709F1040AABF1040EC9E065
:100E80000125A5402A40AA427DD1674ED1F804C071
:100E9000ACEB0608B44532D014DCBCF1030F3AD0F9
:100EA00009DCBCF1000F2AD0BCF1010F1CD0BCF151
:100EB000020F31D11DE0BCF1110F17D0BCF1120FA0
:100EC0002AD119E0B8F5881F19D006DCB8F5803FA3
:100ED00015D0B8F5801F1FD111E0B8F5001F0ED056
:100EE000B8F5041F18D10AE0CB6815E0CB681B1DCC
:100EF00012E0CB6808330FE0CB680C330CE08B6852
:100F00002BB1012B4FF0080303D0456104E004230B
:100F100002E0056100E00023FF2A01D8064601E057
:100F200000F104064FEA840501D9A5F12005D6F8A1
:100F3000008007FA05FC28EA0C0803FA05F548EAE0
:100F40000508C6F800804D68ED0062D5374DAE69E2
:100F500046F00106AE61AD6924F0030605F0010517
:100F60000095334D06EB050CDCF80850A607360F4C
:100F700007FA06F825EA0805DFF8B880404503D1EE
:100F80004FF0000817E044E0DFF8AC80404502D1A4
:100F90004FF001080FE0DFF8A480404502D14FF088
:100FA000020808E0DFF89880404502D14FF00308BE
:100FB00001E04FF0040808FA06F848EA0508CCF802
:100FC00008804D68D9F80060ED024D4601D5164302
:100FD00000E096432E604D68DAF80060AD02554699
:100FE00001D5164300E096432E604D68DBF80060A3
:100FF000AD035D4601D5164300E096432E604D6873
:10100000DEF80060ED03754601D5164300E0964317
:101010002E60641C0D682A46E5407FF431AFBDE8C0
:10102000F88F000008040140000011100010024079
:101030000000014000080140000C01400010014088
:10104000001401408068084000D0012070470AB1B8
:10105000016170470904FBE70148806870470000A0
:101060001800002070B5040025D094F83D0000253C
:1010700020B984F83C50204600F00EFB242084F870
:101080003D002068016821F00101016020680168CD
:1010900041F4004101602068016821F400410160D1
:1010A00000F0FAFC4D4A6168914201D84C4900E0D9
:1010B0004C49884201D2012070BD4B492368B0FBE6
:1010C000F1F15E6826F03F060E435E60636893426E
:1010D00006D94FF4967359434FF47A73B1FBF3F189
:1010E0002368491C1E6A26F03F0631431962616875
:1010F000914210D84900401EB0FBF1F2521CC2F3DD
:101100000B02042A01D2042022E0B0FBF1F0401CC3
:10111000C0F30B001CE0A268F2B301EBC10303EBC8
:101120000116431EB3FBF6F35B1C43F480431B051F
:1011300049D092B301EBC10202EB0111401EB0FB9A
:10114000F1F0401CC0F30B0040F4804040F400403C
:101150002168CA694CF6FF739A431043C861D4E909
:10116000071001432068026822F0C00211430160A9
:10117000D4E9030101432068826848F2FF339A43AF
:1011800011438160D4E9050108432168CA6822F04F
:10119000FF021043C86001E00EE016E0206801681D
:1011A00041F0010101602564202084F83D002563A1
:1011B00084F83E50002070BD01EB4106431EB3FB96
:1011C000F6F35B1CB3E70120C2E701EB4101401ECF
:1011D000B0FBF1F0401CC0F30B00B7E7A0860100A4
:1011E00080841E0000093D0040420F002DE9F84FA9
:1011F0001F4690468A460446DDF82890FFF72CFFEC
:10120000054694F83D0020287FD11923012240494A
:101210002046009501F0A2F8002876D194F83C0011
:10122000012872D0012084F83C0020680168C907B9
:1012300003D1016841F0010101602068016821F4D7
:1012400000610160212084F83D00102084F83E00F8
:1012500000262664C4F824806785608D20852D488B
:10126000E0622B464A465146204600F02BFF90B9DB
:10127000206841698069009036E02A464946204648
:1012800001F04AF950B1206C042804D120680168AB
:1012900041F4007101600120BDE8F88F606A2168A7
:1012A00000780861606A401C6062618D491E61853A
:1012B000218D491E89B2218522685369DB435B0772
:1012C0000BD451B100781061606A401C6062608D7F
:1012D000401E6085208D401E20852A4649462046B6
:1012E00001F010F80028CED1208D0028C5D154F887
:1012F0003D0B016841F400710160202004F81E09D3
:10130000E67766770020C7E7FFE70220C4E7000022
:10131000020010000000FFFF2DE9FF4F83B0002501
:10132000DDE910799A4693460446DDF84880009539
:10133000FFF792FE064694F83D0020287CD1192341
:10134000012285492046009601F008F80028F5D1D1
:1013500094F83C0001286FD0012084F83C002068FC
:101360000168C90703D1016841F0010101602068EB
:10137000016821F400610160222084F83D004020D2
:1013800084F83E0025646762A4F82A90608D208569
:101390007248E062CDE9008653465A4620460499D9
:1013A00000F0DEFE00287DD1208DDFF8B4912027EB
:1013B00068B1012814D00228206801681ED041F4C9
:1013C000806101602068416980690090B6E0206812
:1013D000416981690091016841F400710160ADE0EB
:1013E0002068016821F48061016072B6206841695B
:1013F00081690091016841F400710AE041F40061E3
:10140000016072B62068416981690091016821F428
:101410008061016062B691E0032868D801280CD091
:10142000022843464FF000024946204600960FD05E
:1014300000F094FFB0BB10E08BE0324641462046FE
:1014400001F032F870BB20680069616A08706CE0D6
:1014500000F084FF30BB72B634E02068016821F4EC
:101460008061016072B620680069616A0870606A14
:10147000401C6062208D401E2085608D401E60856E
:10148000384846F2A8110068B0FBF1F0C0EBC0008C
:1014900000EB80000090401E009008D0206840695A
:1014A000C04300E029E040070CD50098F3E744F87A
:1014B000305F6773A573206940F02000206162B639
:1014C00025731AE02068016841F40071016020680A
:1014D0000069616A0870606A401C6062218D491E63
:1014E0002185618D491E618562B621681BE0324607
:1014F0004146204600F0D8FF18B1012007B0BDE8F2
:10150000F08F20680069616A0870606A401C606240
:10151000218D491E2185618D491E618521684A6999
:10152000D24352070AD409690170606A401C6062A4
:10153000208D401E2085608D401E6085208D0028F6
:101540007FF46AAF84F83D7084F83E5084F83C50D4
:10155000D4E70220D2E70000020010000000FFFFE5
:1015600004000100240000202DE9FF4F83B09A46BB
:10157000DDE9119793460446DDF84080FFF76CFDE6
:10158000054694F83D0020287FD1192301224049C7
:101590002046009500F0E2FE002876D194F83C0049
:1015A000012872D0012084F83C0020680168C90736
:1015B00003D1016841F0010101602068016821F454
:1015C00000610160212084F83D00402084F83E0045
:1015D00000262664C4F82480A4F82A90608D208513
:1015E0002C48E062CDE9007553465A4620460499DE
:1015F00000F034FE70B930E02A463946204600F04B
:101600008BFF58B1206C042804D12068016841F494
:1016100000710160012007B0BDE8F08F606A2168A9
:1016200000780861606A401C6062218D491E89B2A1
:101630002185628D521E628522685369DB435B07F8
:101640000BD469B100781061606A401C6062208D23
:10165000401E2085608D401E6085208D0028CBD1E6
:101660002A463946204600F04DFE0028CAD154F8DB
:101670003D0B016841F400710160202004F81E094F
:10168000E67766770020C6E7FFE70220C3E70000A1
:10169000020010000000FFFF10B586B0002100918D
:1016A00001910291039100680F4988421AD10F4CB1
:1016B000A06940F00800A061A069694600F0080038
:1016C0000490C0200090122001900320039008484D
:1016D000FFF7C8FBE06940F40010E061E06900F446
:1016E0000010049006B010BD0054004000100240ED
:1016F000000C014002488168027811448160704703
:1017000018000020074810B5016841F01001016081
:10171000032000F093F80F2000F006F800F024F802
:10172000002010BD0020024070B50D4D04464FF45E
:101730007A712878B1FBF0F00A490968B1FBF0F042
:1017400000F077FB48B9102C07D200222146501E2A
:1017500000F054F800206C6070BD012070BD0000E6
:1017600018000020240000200C4808B5816941F0D1
:1017700001018161816901F001010091C16941F0BC
:101780008051C161C06900F08050009004484168F8
:1017900021F0E06141F00071416008BD001002409D
:1017A00000000140002809DB00F01F0201219140E8
:1017B0004009800000F1E020C0F880127047002846
:1017C0000DDB00F01F02012191404009800000F173
:1017D000E020C0F88011BFF34F8FBFF36F8F7047C9
:1017E000002809DB00F01F02012191404009800020
:1017F00000F1E020C0F8001170470000F0B40E4B7B
:101800001B680C46C3F30223C3F10705042D00D95E
:101810000425191D072901D2002300E0DB1E012643
:1018200006FA05F1491E214099409E40761E164059
:101830003143F0BC01F0ACB80CED00E0064900F01B
:10184000070208684FF6FF03184040EA0220034AE7
:1018500010430860704700000CED00E00000FA053E
:101860000648026822F004020260012903D040BF4A
:1018700020BF20BF704730BF7047000010ED00E070
:101880002DE9F84305460078354CC00754D0E0698F
:101890000026C00008D4E06940F08050E061E069B3
:1018A000012600F0805000902E480168C90512D42E
:1018B0000168804641F480710160FFF7CDFB074667
:1018C00005E000BFFFF7C8FBC01B642823D8D8F889
:1018D0000000C005F6D5206A10F4407021D0A98818
:1018E00001F4407181421CD0206A1F49012220F47A
:1018F00040700A6000220A602062C00711D0FFF722
:10190000ABFB074641F2883808E000BFFFF7A4FBB5
:10191000C11B414502D90320BDE8F883206A800736
:10192000F4D5206A696820F44070084320621EB133
:10193000E06920F08050E0612878800705D5606874
:10194000A96820F44040084360602878C00605D5A7
:101950006068E96820F48000084360600020DBE7ED
:101960000010024000700040400442422DE9F04760
:101970000F46050061D0434E306800F00700B842C2
:1019800009D2306820F0070038433060306800F03A
:101990000700B84251D128683B4C810712D5400757
:1019A00003D5606840F4E06060602878000703D5E4
:1019B000606840F4605060606068A96820F0F000E2
:1019C000084360602878C00728D06868012810D0D4
:1019D0002168022810D0890700292EDA616821F0D9
:1019E000030101436160FFF737FB804641F288390C
:1019F0000DE021688903EFE78901EDE7FFF72CFB94
:101A0000A0EB0801494502D90320BDE8F0876068D2
:101A1000696800F00C00B0EB810FEFD1306800F086
:101A20000700B8420BD9306820F007003843306017
:101A3000306800F00700B84201D00120E5E72878BF
:101A4000400705D56068E96820F4E06008436060FD
:101A50002878000706D56068296920F4605040EABC
:101A6000C100606000F028F86168084AC1F3031102
:101A7000515CC8400649086006480068FFF754FEFC
:101A80000020C2E700200240001002401A31000886
:101A9000240000201C000020044805490068496813
:101AA000044AC1F30221515CC84070472400002061
:101AB000001002402A3100080E4A51680E4801F019
:101AC0000C03042B11D0082B0FD10C48C1F3834316
:101AD000C903C05C0AD55168084AC1F34041921E4F
:101AE000515C054A5043B0FBF1F07047044948434C
:101AF000704700000010024000127A000A3100080E
:101B000000093D002DE9F84F040070D02078C04D49
:101B1000C00749D06868C0F38100012807D0686811
:101B2000C0F38100022809D16868C00306D528687F
:101B3000800339D560680028E7D035E06068B0F5EB
:101B4000803F0BD010B1B0F5A02F11D0286820F441
:101B500080302860286820F4802002E0286840F463
:101B600080302860606890B1FFF776FA06460AE098
:101B7000286840F480202860F0E700BFFFF76CFA87
:101B8000801B642873D828688003F7D50CE0FFF722
:101B900063FA064605E000BFFFF75EFA801B642883
:101BA000F0D828688003F7D420789A4E80074FF049
:101BB00001094FF0000839D5686810F00C0F07D004
:101BC0006868C0F38100022809D16868C00306D4A0
:101BD0002868800714D52069012808D110E0206901
:101BE000B0B1C6F80090FFF737FA074605E00AE102
:101BF000FFF732FAC01B0228C4D828688007F7D53F
:101C00002868616920F0F80040EAC10028600DE012
:101C1000C6F80080FFF720FA074604E0FFF71CFA39
:101C2000C01B022823D828688007F7D42078000733
:101C30002CD57948A169D9B1C0F80090FFF70CFA0A
:101C4000074604E0FFF708FAC01B02280FD8686AAD
:101C50008007F7D571484FF4FA510068B0FBF1F0F6
:101C6000009000BF0098411E0091FAD20EE080E083
:101C7000C0F80080FFF7F0F9074604E0FFF7ECF941
:101C8000C01B022875D8686A8007F7D420784007FF
:101C900060D5E8690027C00008D4E86940F08050AA
:101CA000E861E869012700F0805000905C48016815
:101CB000C90513D40168834641F480710160FFF7C0
:101CC000CBF9824606E000BFFFF7C6F9A0EB0A0099
:101CD00064284ED8DBF80000C005F5D5E06801287F
:101CE0000AD008B1052813D0286A20F00100286224
:101CF000286A20F0040002E0286A40F0010028620F
:101D0000E06841F2883B98B1FFF7A6F982460BE004
:101D1000286A40F004002862EEE700BFFFF79CF954
:101D2000A0EB0A0159455AD8286A8007F6D50CE07D
:101D3000FFF792F9824605E0FFF78EF9A0EB0A0162
:101D400059454CD8286A8007F6D41FB1E86920F0BD
:101D50008050E861E06988B36968C1F381010229B4
:101D600044D00228C6F8608004D0FFF775F9044615
:101D700038E034E0FFF770F9074604E0FFF76CF94C
:101D8000C01B02282BD828688001F7D4206AB0F540
:101D9000803F05D16868A16820F40030084368607E
:101DA000D4E908010843696821F4741108436860A4
:101DB000C6F86090FFF750F9044606E025E000BF42
:101DC000FFF74AF9001B022809D828688001F7D5D7
:101DD0001BE000BFFFF740F9001B022802D90320D7
:101DE000BDE8F88F28688001F4D40EE00128F7D010
:101DF0006868226A00F48031914204D1616A00F47B
:101E00007010884201D00120EAE70020E8E70000D6
:101E100000100240000042428004424224000020A0
:101E2000007000404FF0E020016941F002010161C3
:101E3000704710B5401EB0F1807F01D3012010BD66
:101E40004FF0E02460610F21601700F0A1FD002039
:101E5000A06107202061002010BD4FF0E020016943
:101E600021F002010161704770B590F83C20012A11
:101E700026D0012480F83C40022280F83D200368EF
:101E80005A689D6822F070060A6832435A600D4B0A
:101E900002689A4208D0B2F1804F05D00A4B9A42AC
:101EA00002D00A4B9A4204D1496825F080031943B5
:101EB000916080F83D40002180F83C10084670BDDC
:101EC000022070BD002C01400004004000080040CA
:101ED00010B5040003D094F83D0010B107E00120D4
:101EE00010BD002084F83C00204600F01FF80220BE
:101EF00084F83D00211D206800F0DEFC012084F8FC
:101F0000460084F83E0084F83F0084F8400084F8DE
:101F1000410084F8420084F8430084F8440084F8C7
:101F2000450084F83D00002010BD000008B50C4AB3
:101F300001680C48914207D1816941F400618161D7
:101F4000806900F4006009E0B1F1804F07D1C169F8
:101F500041F00101C161C06900F00100009008BDBD
:101F6000002C01400010024090F83D10012901D0E2
:101F700001207047022180F83D1000680B4988421B
:101F800008D0B0F1804F05D00949884202D00949F4
:101F9000884204D1816801F00701062903D0016855
:101FA00041F001010160002070470000002C014059
:101FB000000400400008004070B5044690F83C0062
:101FC0000025012817D0012684F83C60022084F8FF
:101FD0003D002068826822F0770222F47F4282600E
:101FE0000868502838D00DDC20284FD005DC90B38D
:101FF000102811D14AE0022070BD302846D0402878
:102000000AD13BE060282FD070280DD0B0F5805F5A
:1020100003D0B0F5005F12D0012584F83D600020A8
:1020200084F83C00284670BDCB68D1E901212068C6
:1020300000F078FC2068816841F0770109E0CB6806
:10204000D1E90121206800F06DFC2068816841F42D
:1020500080418160E1E719E0CA684968206800F0C2
:1020600073FC5021206806E0CA684968206800F0C7
:102070007CFC6021206800F05FFCCEE7CA684968FC
:10208000206800F061FC40212068F4E722680146E6
:102090001046F0E7FEE701684A69D24352050FD4C3
:1020A0006FF480624A61002140F8301F20224273A1
:1020B0008173026942F004020261017301207047DA
:1020C00000207047F8B50446C06A1E460D46174604
:1020D000082807D0012805D010F5803F02D0206BDA
:1020E000122804D12068016841F480710160134610
:1020F00000224FF001112046009600F02FF940B168
:1021000020680068C00502D54FF4007020640320E9
:10211000F8BD2069B0F5804F0ED00620216800EA96
:10212000D51040F0F000086133463A460B4920468E
:1021300000F05CF978B902E005F0FE0000E0E8B2DA
:1021400021680861054933463A46891F204600F058
:102150004DF90028DCD00120F8BD00000800010086
:102160002DE9F84F0446006889460B9D01689846A2
:10217000174641F4806101602068016841F4807174
:10218000016000954FF0011B0022594620460A9B32
:1021900000F0E4F84FF4007A40B120680068C00510
:1021A00001D5C4F840A00320BDE8F88F216809F0EC
:1021B000FE0008612B46284920460A9A00F016F9CD
:1021C000F0BB20684169806900902A4620460A9940
:1021D00000F0A2F940B1206C04283AD120680168CF
:1021E00041F40071016034E0FEB2B8F1010F09D092
:1021F0002168380A08612A4620460A9900F08CF9BD
:102200000028E8D1206806612A4620460A9900F095
:1022100083F90028DFD12068016841F480710160F2
:1022200000950022594620460A9B00F097F80028A6
:10223000B3D1216809F0FF0040F00100086100E01F
:1022400007E02B46044920460A9A00F0CFF8002800
:10225000AAD00120A8E70000020001002DE9F84300
:10226000044600680D46DDE9089701689846164661
:1022700041F4807101604B4600224FF0011120466D
:10228000009700F06BF848B120680068C00502D5DF
:102290004FF4007020640320BDE8F883216805F046
:1022A000FE0008613B464A461549204600F09EF86C
:1022B00088B920684169806900903A4649462046BD
:1022C00000F02AF948B1206C042804D12068016884
:1022D00041F4007101600120DEE7F5B2B8F1010FB1
:1022E00009D02168300A08613A464946204600F084
:1022F00013F90028E7D1206805610020CCE7000031
:102300000200010070B516460D4604461EE0204648
:10231000FFF7C1FE08B1012070BD681C16D0FEF7A2
:102320009BFE801BA84200D885B920684069C04345
:1023300040070BD5002044F8300F20216173A073B3
:10234000216941F0200121612073E4E720684069A0
:10235000C0434007DBD4002070BD00002DE9F047EA
:10236000984617460D460446C1F30746DDF820900F
:102370002AE000BFB8F1FF3F26D0FEF76DFEA0EBCC
:102380000901414502D8B8F1000F1DD12068012E86
:1023900016D0806925EA00000004000C12D000204D
:1023A000B84211D1002044F8300F20216173A0738E
:1023B000216941F02001216120730120BDE8F087EF
:1023C0004069E7E70120EBE72068012E0AD0806929
:1023D00025EA00000004000C06D00020B842C9D055
:1023E0000020EBE74069F3E70120F7E72DE9F0472C
:1023F000984616460D4604464FF000094FF0200A55
:10240000C1F3074723E020684069C043400515D465
:102410002068016841F40071016021686FF48060F8
:102420004861C4F8309084F83DA084F83E90216C57
:1024300041F00401216484F83C9021E0701C06D036
:10244000FEF70AFEA0EB0800B04203D816B1012F38
:102450001FD021E02068012F15D0806925EA0000F7
:102460000004000C18D000BF44F8309F84F80DA081
:1024700084F80E90216941F02001216184F80C90CC
:102480000120BDE8F087406925EA00000004000C47
:10249000EAD12068406901E02068806925EA0000EF
:1024A0000004000CAFD1ECE72DE9F0410025904687
:1024B0000E460446202728E04069C043C0060CD4DD
:1024C00054F8301B6FF01000486144F810596777DA
:1024D000A577206A2062257714E0FEF7BDFDA0EB0A
:1024E0000800B04200D886B920684069C043400661
:1024F0000BD544F8305F6773A573206940F0200066
:10250000206125730120BDE8F08120684169C9433D
:102510004906D1D40020F6E770B516460D460446AC
:102520001EE02046FFF7B7FD08B1012070BD681C12
:1025300016D0FEF791FD801BA84200D885B920680F
:102540004069C04300060BD5002044F8300F20211D
:102550006173A073216941F0200121612073E4E7D8
:1025600020684069C0430006DBD4002070BD000035
:102570003EB5002411480094019402940E498460F1
:10258000016001250573047505614FF46021446005
:10259000C161FEF771F908B172B6FEE7052000943B
:1025A000CDE9015069460548FEF7E4F8002801D05E
:1025B00072B6FEE73EBD0000002401402800002066
:1025C0002DE9F04186B0002531480095019502952E
:1025D0000395816941F020018161816901F0200149
:1025E0000491816941F004018161816901F0040174
:1025F0000491816941F0080181618069DFF894806C
:1026000000F008004FF470670490002239464046FD
:10261000FEF71DFD204E3020CDE90006012469465D
:1026200002944046FEF71EFC0A20CDE900066946EA
:1026300002941A48FEF716FC0220CDE90250CDE9BB
:10264000007469464046FEF70DFC00220121072078
:10265000FFF7D4F80720FFF7C3F80022114609203E
:10266000FFF7CCF80920FFF7BBF8002203210A206E
:10267000FFF7C4F80A20FFF7B3F800220321172060
:10268000FFF7BCF81720FFF7ABF806B0BDE8F08104
:10269000001002400008014000002110000C014021
:1026A00010B586B000241748009401940294039456
:1026B00004941349059401604721C0E901144FF6C1
:1026C000FF71C0E9031444618461FFF701FC08B1A4
:1026D00072B6FEE74FF48050009069460948FFF754
:1026E0006BFC08B172B6FEE7049404A90548059492
:1026F000FFF7BAFB002801D072B6FEE706B010BDA6
:10270000002C0140AC00002010B586B00024164813
:10271000009401940294039404944FF08041059432
:1027200001604721C0E901144FF6FF71C0E90314AD
:102730008461FFF7CDFB08B172B6FEE74FF480501D
:10274000009069460848FFF737FC08B172B6FEE70B
:10275000049404A904480594FFF786FB002801D0DF
:1027600072B6FEE706B010BDF4000020FEE7FEE7FB
:10277000704700007FB514460D46064664220321CB
:1027800003A88DE8070001230022D0210948FEF7A5
:10279000C3FD9DF80C00FDF7ADFF30709DF80D00F6
:1027A000FDF7A8FF28709DF80E00FDF7A3FF20702D
:1027B0007FBD0000580000201FB513460C46FDF7F2
:1027C000BFFF8DF80C002046FDF7BAFF8DF80D0015
:1027D0001846FDF7B5FF8DF80E006422032103A80B
:1027E0008DE8070001230422D0210248FEF7BCFE39
:1027F0001FBD0000580000201FB513460C46FDF712
:102800009FFF8DF80C002046FDF79AFF8DF80D0014
:102810001846FDF795FF8DF80E006422032103A8EA
:102820008DE8070001230022D0210248FEF79CFE1C
:102830001FBD0000580000207047FEF75BBF30B599
:1028400093B028216846FDF7D7FD14210AA8FDF7AB
:10285000D3FD002501200F951095119501041295C7
:102860008DE8230004904FF4E010CDE90810022415
:1028700007946846FFF746F908B172B6FEE70AA961
:102880000F2081E831004FF48060CDE90D05022171
:102890000AA8FFF76BF808B172B6FEE74FF40040E4
:1028A00011900F940FA8FEF7EBFF002801D072B62D
:1028B000FEE713B030BD7047F0B50268164B174CF9
:1028C000174D4FF08047984205D0B84203D0A04240
:1028D00001D0A84203D122F070064A6832439842E0
:1028E00005D0B84203D0A04201D0A84203D122F4BF
:1028F0004074CA6822434C6922F08002224302607D
:102900008A68C2620A688262984201D109690163D9
:1029100001214161F0BD0000002C01400004004095
:102920000008004010B5846842EA032224F47F4482
:102930000A432243826010BD826822F070020A437B
:1029400042F007018160704710B5036A046A24F001
:1029500001040462846924F0F00444EA021423F0C0
:102960000A020A438461026210BD10B5036A046A58
:1029700024F010040462846923F0A00324F470445A
:1029800044EA023243EA01118261016210BDFEE7AE
:102990000907090E002804DB00F1E02080F800148C
:1029A000704700F00F0000F1E02080F8141D704720
:1029B00030380A2801D201207047002070470128D2
:1029C00005D04031C8B240F0800000F031B880310D
:1029D000C8B2FAE710B5332000F02AF8322000F030
:1029E00027F83220FEF7B4F9282000F021F8322031
:1029F000FEF7AEF9012000F01BF83220FEF7A8F92F
:102A0000062000F015F83220FEF7A2F90C2000F0A5
:102A10000FF83220FEF79CF9022000F009F832206E
:102A2000FEF796F9BDE81040802000F001B80000E4
:102A30001CB500F0F00141F00C028DF8042041F0CB
:102A4000080100018DF8051040F00C018DF806100A
:102A500040F008008DF8070064200090042301AACC
:102A60004E210248FEF7C2FB1CBD000058000020AA
:102A70001CB500F0F00141F00D028DF8042041F08A
:102A8000090100018DF8051040F00D018DF80610C8
:102A900040F009008DF8070064200090042301AA8B
:102AA0004E210248FEF7A2FB1CBD0000580000208A
:102AB00010B5044602E0641CFFF7DAFF2078002816
:102AC000F9D110BD08B5FEF71DFEFFF7B8FEFFF700
:102AD00077FD9248416941F001014161406900225E
:102AE00000F00100009004210B20FEF787FE0B2070
:102AF000FEF776FEFFF7D4FDFFF73AFD89488849D7
:102B00004FF4804201608849416000218160C0E942
:102B1000031241618161C1610162FEF7A3FA08B14C
:102B200072B6FEE7FFF7F0FD7E485430FFF71CFA5F
:102B30007C489C30FFF718FAFFF74CFF79480122D8
:102B40007A493038FDF76EFF082237210020FFF761
:102B500053FE012118220846FFF72EFE734C102762
:102B6000734E241F4FF020084FF002094FF4FA6A09
:102B70004FF47A7B032537600A20FEF713FEC6F870
:102B800000801720FEF70EFEC6F800900720FEF723
:102B900009FE26E0654A921E511E481EFFF7EAFD17
:102BA0002078009061486378A27862A10C30FDF72C
:102BB0000FFB00210120FFF702FF5C480C30FFF7FC
:102BC00077FF00210846FFF7FAFE5EA0FFF770FFCF
:102BD0000A20FEF705FE1720FEF702FE0720FEF78B
:102BE000FFFDE068B0FBF5F105FB11000128D1D035
:102BF00044E00A20FEF7E3FD1720FEF7E0FD072082
:102C0000FEF7DDFD0020FEF7A3F8484A921E511E94
:102C1000481EFFF7AFFD2078009044486378A27803
:102C200044A10C30FDF7D4FA00210120FFF7C7FEC4
:102C30003E480C30FFF73CFF00210846FFF7BFFE7F
:102C400045A0FFF735FF60685246904208D9A0685A
:102C5000504511D259464FF4007000F06BF90BE06B
:102C6000904209D2A168814206D0514504D9594603
:102C70004FF4007000F090F86068A060E068B0FB6E
:102C8000F5F105FB11000228B3D03DE0274A921E62
:102C9000511E481EFFF76EFD207800902348637890
:102CA000A27824A10C30FDF793FA00210120FFF750
:102CB00086FE1E480C30FFF7FBFE00210846FFF79A
:102CC0007EFE2AA0FFF7F4FE0A20FEF778FD17200B
:102CD000FEF775FD0720FEF772FDA078082813D1D6
:102CE0006078392810D120780A2802D01E280BD10C
:102CF00005E059464FF4007000F01CF904E0594615
:102D00004FF4007000F048F8E068B0FBF5F105FB07
:102D1000110000287FF42FAFB8E700000010024038
:102D20000054004058000020A0860100040000204C
:102D300014040140253032643A253032643A25309B
:102D4000326400004D6F646520313A205468756329
:102D50006F6E6720000000004D6F646520323A20DE
:102D6000416E6873616E6720000000004D6F6465FE
:102D700020333A2054686F696769616E0000000073
:102D8000044900220B685A6209684A6A8242FCD3ED
:102D900070470000F40000202DE9F05F8B460546E7
:102DA0000024C0E00122624F160231463846FEF789
:102DB0004EF94FF40078002241463846FEF747F9B5
:102DC0004FF48069002249463846FEF740F94FF437
:102DD000006A002251463846FEF739F95846FFF797
:102DE000CFFF012231463846FEF731F90122414634
:102DF0003846FEF72CF9002249463846FEF727F9F7
:102E0000002251463846FEF722F95846FFF7B8FF30
:102E1000002231463846FEF71AF90122414638466B
:102E2000FEF715F9002249463846FEF710F9002250
:102E300051463846FEF70BF95846FFF7A1FF00222E
:102E400031463846FEF703F9012241463846FEF77F
:102E5000FEF8012249463846FEF7F9F800225146AD
:102E60003846FEF7F4F85846FFF78AFF002231464D
:102E70003846FEF7ECF8002241463846FEF7E7F800
:102E8000012249463846FEF7E2F80022514638460C
:102E9000FEF7DDF85846FFF773FF0022314638464B
:102EA000FEF7D5F8002241463846FEF7D0F8012259
:102EB00049463846FEF7CBF8012251463846FEF720
:102EC000C6F85846FFF75CFF002231463846FEF749
:102ED000BEF8002241463846FEF7B9F800224946BE
:102EE0003846FEF7B4F8012251463846FEF7AFF8EF
:102EF0005846FFF745FF012231463846FEF7A7F84E
:102F0000002241463846FEF7A2F8002249463846DC
:102F1000FEF79DF8012251463846FEF798F85846CC
:102F2000FFF72EFF641CAC42FFF63CAFBDE8F09FFC
:102F3000000801402DE9F05F8B4605460024C0E003
:102F40000122624F160231463846FEF780F84FF4F0
:102F50000078002241463846FEF779F84FF4806940
:102F6000002249463846FEF772F84FF4006A012203
:102F700051463846FEF76BF85846FFF701FF00222E
:102F800031463846FEF763F8002241463846FEF7E0
:102F90005EF8002249463846FEF759F801225146AC
:102FA0003846FEF754F85846FFF7EAFE002231464D
:102FB0003846FEF74CF8002241463846FEF747F8FF
:102FC000012249463846FEF742F80122514638466A
:102FD000FEF73DF85846FFF7D3FE0022314638464B
:102FE000FEF735F8002241463846FEF730F8012258
:102FF00049463846FEF72BF8002251463846FEF780
:1030000026F85846FFF7BCFE002231463846FEF748
:103010001EF8012241463846FEF719F801224946BA
:103020003846FEF714F8002251463846FEF70FF8EE
:103030005846FFF7A5FE002231463846FEF707F84E
:10304000012241463846FEF702F80022494638463A
:10305000FDF7FDFF002251463846FDF7F8FF5846C0
:10306000FFF78EFE012231463846FDF7F0FF0122C0
:1030700041463846FDF7EBFF002249463846FDF74A
:10308000E6FF002251463846FDF7E1FF5846FFF7BC
:1030900077FE012231463846FDF7D9FF002241462E
:1030A0003846FDF7D4FF002249463846FDF7CFFFEA
:1030B000002251463846FDF7CAFF5846FFF760FE2A
:1030C000641CAC42FFF63CAFBDE8F09F0008014035
:1030D00010B50C4C00224FF480712046FDF7B7FF6D
:1030E000002261152046FDF7B2FF0022211520467F
:1030F000FDF7ADFF0022E1142046BDE81040FDF7CA
:10310000A6BF0000000801400102020304050607F3
:1031100008090A0B0C0D0E0F101000000000000033
:103120000000010203040607080900000000010274
:103130000304040000080000000000000002000179
:10314000000010006431000800000020280000008A
:10315000280100088C31000828000020B807000072
:103160004401000800000000000000000000000012
:10317000010000000000000000000000010000004D
:0C31800010000000000000000024F4001B
:04000005080000ED02
:00000001FF
